:100000000C949B1F0C940F200C940F200C940F2029
:100010000C940F200C940F200C940F200C940F20A4
:100020000C940F200C940F200C940F200C940F2094
:100030000C940F200C94BA250C94FA250C940F20E4
:100040000C940F200C940F200C940F200C940F2074
:100050000C940F200C940F200C940F200C940F2064
:100060000C940F200C940F200C940F200C940F2054
:100070005A5501200101003808000000000000006E
:100080000000000000000000000000000000000070
:100090008100450027FF24FF2A902B1C210C22FB06
:1000A000850084008903888D81096F0244424700DE
:1000B0004501B083B300B10125118A4F8B03CE2CCB
:1000C000D12C7A2D6F306730D22CD72CDC2C5830C5
:1000D000DF2CE22CE52C292D0000000000000000A0
:1000E0000000000000000000000000000000000010
:1000F00000000000000001010102030405060709D9
:100100000A0C0E10111214151617171817161410C2
:100110000A05F9F3EDE7E5E2E1E0E0E1E1E3E4E639
:10012000E8EAECEEF0F2F4F6F8FBFD010406090B48
:100130000E101215181A1D1F222427292B2D2D2DC4
:100140002D2A241E0F01F6E3DDD6D0D0CFD0D1D397
:10015000D6D9DDE1E7ECF2F7FE03080E0D110C082D
:100160000B080B0D101215171A1C1D1E191811055E
:10017000060000FFFFFDF6F6EEEEEEE9E9E6DADD59
:10018000DBDBE2E6EBF2F9010810181F282D32360E
:10019000302C2518100AFDF3F4EEF0F1F1ECEDE34C
:1001A000DBDEDCDFE7E9EDF3EAF2EFECF5F7FF0782
:1001B00010181F262C3136383839302A231C09FBF9
:1001C000F3DAD3CCC4C9C9C8CDC6C7CDCFD8E1E90D
:1001D000F4FD0C16212C353D424A47474C3E3E3536
:1001E0002E210C01ECE5CFCCC4BFBCB5B9BBC0C857
:1001F000CED4DEDDE8EEF0FC030D1A242F373F46A7
:100200004B4C5146443D302F29170EFFE4D4C0B863
:10021000ACAEAFB5BAC4CBD3DCE4EDF7000D15201E
:100220002832333737262C21161B1415100B03FFE9
:10023000F9F0F3E9EBE3D9E0DEE4ECF1F5FCF9FFEA
:1002400002050704080B05070C040A0A0A0A060936
:1002500004070B0B0B0C0602FBFBF7F0F4E9E5EBD4
:10026000EBF1F8FD03050A0B060C0C070A0804FF66
:10027000FCF9F8F9FDFAF9FDFD02090C111115134D
:100280000E15110F1104FEFDF2EDECEDEAE1E3E2D3
:10029000DBE0E3E0E7EBEFF6FC040A121A1F252A85
:1002A0002A2F2B2E2F2B2C22151506FDFAEAE4DA25
:1002B000D7D1CED3D1D0D6D6D9DDDDE5EAF2FBFE5B
:1002C000060F131D242B303539383B3B3032281FA5
:1002D000190CFDF4E5D4D0CAC8C9CAC6CBCED3DB4D
:1002E000E3EAF4FC040D161D24282C2A2B272528CC
:1002F00025201A0F0602F7F2EDEAE5E5E0D8DCDC8E
:10030000DFE7EBEFF4FAFAFF070C15181B1B1512C9
:100310001517151912090C07070500FCFAF0E9EC8E
:10032000ECECEEEFE4E3E6E6EDF3F90005080C1182
:100330000D12171618180A0905FF02FE010303051E
:1003400000FF01FF03FEFF0204060808FDFCFAF1AE
:10035000F5F2F0F6F6F7F5F1EAECECEEEFEDF2F689
:10036000FC02070D12171B1F212520201E191E201D
:100370001D1B15FEF3EFEAE8E5E3DEDDDDDDD8D990
:10038000D9D9DFE3EBF3F902070B12171D21272C54
:100390003030302E1E1A1B15180E08FEE4DCD9D2A0
:1003A000D0D7DADBE0E0DEE4E9EFF6FD030B12186C
:1003B0001F22201F211D1A1F1C1E1A090701F6F6F5
:1003C000F4EAE7E0D7DAD9DDE1E7EDF4F7FDFFFF86
:1003D000070D131C212426201A15171310121410B0
:1003E0000705FDE9E2E2E0E3E8EBECE5E3E3E4E95D
:1003F000EFF6FB02080D1016130E11131315181942
:10040000190A030500FD0506050600F1F3F4F7FBE4
:10041000FE0102F6F7F5F1F4F6F7F2F4F7F7F9FB5F
:10042000FCFF03FBF8FDF5F7FCFDFE04090F151BAF
:100430001D1C110B0F11181E22211D06FCF6E7E1F1
:10044000E4E7E9EDEFE4E4DCD0D4D7DBE5F0F80154
:10045000080B0E161C24292F322E282922171616B7
:100460000A0901F6F0E5E3D5D6D2CFD8DBE3E8EF11
:10047000EDEDF5FC030D151D1F1F2528292D231E4D
:100480001B09040602040606FEEEDECAC6C3C3CA82
:10049000D2DAE4EDF5FE01020B121C273239403DA1
:1004A0003232291A181B16180D05F5E2DCD0D0CE11
:1004B000D0D2CBCCD0D3D7DEE8F0FA040E171C1F75
:1004C00021181A19151B1E2123202021180E07FDA3
:1004D000F6F4F7F7FAFCF6F6F6F0E8E8E3E5EAEF0B
:1004E000F3F7F4F1F4EEF3F8FB000A0F12130E0425
:1004F000FFFDFE01060A0E0C0B0E0F0B1014181B4D
:100500001D19120BFFFAF0EEEBE5EAEDF1F2EEEE5B
:10051000E6DEDCDEE1E8F1F901091013181C1D1B11
:100520001F1F21212016100701F9F0F0F0ECEFF168
:10053000F1F1EBE6E7E9EEF4FAFF040404090D0E2D
:100540001016191D1D1C120801FCFAFBFEFE01030A
:1005500002FBF3EEE2D9D8D9DCE2EAF0F6FC0102C4
:10056000080E141A20262A2B26201C1916110704FF
:1005700004FFFEFDFBF5E9E2DFD8D7D9DDE1E6E9CE
:10058000EDF4FAFF050C101315120B08080A0C0FF6
:100590001212141615110D07FCFAFAFCFE000100E8
:1005A000FBF1EEEAEBEDF2F6FAFCFEF8F5F5F7FA00
:1005B000FE0103090D101112110A01FFFCF9FAFCEA
:1005C000FE01030306080A0C0B08070600F8F7F7FC
:1005D000F7F8FBFAF8F9FBFDFEFEFEF8F4F6F8FB7F
:1005E000FE0205060406070A0C0F11110F0B01FB92
:1005F000F5F1EFF0F1F1F5F9FD0003050400FF005E
:10060000010306090B0B090809090A08060402FB85
:10061000F7F7F6F7F8FAF9FAF8F8F8F9F9F8F6F35F
:10062000F3F5F7FAFD000305070B0E111416161566
:10063000110C0A0604030201FFFEFDFDFDFCFAF7A2
:10064000F1EDEBEBECEEF2F5F8FBFF020508090A21
:100650000A08040404040405050504040506070744
:1006600007060402010000FEFDFBFAFAF9F9FAFBA5
:10067000FCFCFBF9F9F9F9FAFCFEFF01030506079A
:100680000807060402000000000101010202020244
:10069000020100FFFEFDFCFDFDFDFEFEFFFF000070
:1006A00000010102010100FFFFFFFEFFFF00010248
:1006B000030304040301FFFDFBFBFBFBFBFBFCFD51
:1006C000FF00010203040303030303030303040401
:1006D000030201010100FFFEFCFCFCFDFDFDFDFC31
:1006E000FBFCFDFEFF0001010100FFFEFF0000FF1B
:1006F000000103050608080602FFFEFF0000FFFEDA
:1007000000020303020100FEFDFCFBFBF9F7F8FB0E
:10071000FDFDFDFE010406070602FFFCFE010403C9
:10072000FFF9F8FB000406080A0B0C0D0F0C01F48E
:10073000EEF0F6FE040705FEFDFBF8F4EEEEF1F335
:10074000F7FC01040405080604070B0F0F0C0D0A43
:1007500004030502FFFFFCFAFDFF00FAF6EFEFF4D9
:10076000F4EEE9EEF7020C16180C060F1A1D0F0036
:10077000FAF5EDF1FD0504FE07131B1E1506E8CC86
:10078000CCD8EAF6F9EDDFDFE9FA080F161D2424CC
:1007900025303117F9F4F3F8061B2C2507F0EEEDA0
:1007A000DBD3DDEDF8F4E9DFDBD2E1F80A10121457
:1007B0001913121F2B2106F1E2EF0925301FFBEA66
:1007C000EFECE9F5F5E0D6E1F60B1C344B4110D91E
:1007D000E0FB06F4F4FF01EEE1F2FCF2F10919117D
:1007E000080D11FDEAE0E1F0F5E8D3DDEBFE0E1CAB
:1007F00023334C625A2D07DFDDD2D6E9F5021B36D2
:1008000028F4D6DDCDB5BACAE0F610261CEFC6DD59
:10081000041F27343D3A252148676118D3BDB7CD61
:10082000EBF9E6EAF0F1D6CCBDB1C4D8EF020C107A
:100830002855775F17EEF2FDF60522312B0B03FFEB
:10084000F40C2B230FF1D6B8AFC6E2F7F0CEB0C54B
:10085000DAEBF90D161C345464470BFD010E0EF44F
:10086000ED061E312E3129EFCAB9D9F2E7C1B6D84B
:10087000FF03DBC9E70210192D3433181F40544021
:1008800004E2E9EEE8D9D8F51115E6BBABC9DFF211
:10089000FE14293015F508303A1DEDFBFEF5F91070
:1008A00021302004FBE4E3EB182B16CEACC5E400AA
:1008B00006FED5D8E9FA040F1D29485C3EF7C7DCCF
:1008C000F70A141907F403F5E6062B37EFA4B8DD91
:1008D000FDF7DBD4F70B07E1E90B1C222B3D453E6E
:1008E000273D544B00E7D9D4CCB8CFE90307DB9EB2
:1008F000A5C5DCE3EFFD0E1C2919000029414213B8
:100900000B120C1918203D4F32EED6E7F0F3F2EB44
:10091000C3CAD6EDF1F4CDCFE0EDF6FB03132B3CCB
:100920002DFCF1EBFA02061C343C14E5EAFF2337F8
:100930004312D0CFD3D2CFD6E80108F7DAEEFD0FBD
:10094000151F2B382F252B2AF9FB0408CEC2D7F30D
:100950000D14EEB3C4D9ECF0FB0D1D1101EEF1FD49
:1009600010242F39210400F9060A1E364723D2D15C
:10097000E5EFF5FBE4DCEBF6FEF7DBE3F300050760
:1009800010212F16E8E4F9FEEEF2000D1C251CF6EE
:10099000E3EE091A282005DDC6CDD9E4F0020E13D6
:1009A000FDF403112026313D483E230FEAE9FD0204
:1009B000F5E2DAEAF8E8CBBDC5D3DCE7F1FE00F7F3
:1009C000F1F8FE020D1C27333E38180509172632B0
:1009D000392E0FDFCDE0F2F4E5E3EDF3F4F5E4E0DA
:1009E000EDF601080D0B06F2E9F3FAFEFBF8031130
:1009F00019140C0E130B0A18201703F8E3D5DCE5C5
:100A0000F0F9000604F6F4000D171E26292312083B
:100A100000F8F9F3F6FDFFF7F2EBE4DBDEE6EDF4C8
:100A2000FBFCF5F0F0F7FE01050F191F2226291B2C
:100A3000090E1A1E140A02F6EFEBEDF4F0ECF2F8D0
:100A4000FCFFF4ECF4FB01080B07FCEFEBEFF3F910
:100A5000FFFEFE050905050B101618100A05F7F52F
:100A6000FCF8EAE8F0F6FC030A0700040E151C2166
:100A700024211C0EF8F5F7F2F6FAFE02F4E0E3E3A7
:100A8000DBE0E7E7E5E4E4EAF0F6FD040A0F161F11
:100A9000272C31382E171920160F0E01F4F9F7F014
:100AA000F3F0EEF2F8F9EFEAF0F5F7F7F7EDE0DE44
:100AB000E3E7EDF3FC02FF030D0A0B14191D2528D3
:100AC0001E1005F9F90104F9EEF5FCFD060C030210
:100AD0000C0F0F130F0B1412F9F0F3EFF1F9FEF9ED
:100AE000F2F1EBE1DDE0E3E7EAE8E5E7EFF7000745
:100AF0000E15181C273034383D331704FEFC000453
:100B0000FEF5FA00F5EEF3F7FB00F6F0F8F9FA035C
:100B100000EBE1E2E2E7F0F6F8FB0000FF01060B74
:100B20000F110E08080AFEF8FF01030705FF02096E
:100B30000B10110A0C13181D1D1611130AF8F4F7E7
:100B4000F4F5F4EDECEDECE7DDD7D3D1D5DBE3EA5A
:100B5000EFF6FD030A10161C21262B2D2E2E2B1E20
:100B6000120F09050701FD0001FAF6F6F7F9F7F291
:100B7000F0EEEAEAE9E5E7EAEAEDF2F5F9FD01026D
:100B8000010307090C10141310100C0605060605C6
:100B90000608050203050401FEFEFEFF0102020530
:100BA00003FBFAFCFCFCFBF9FAF9F9F9F8F7F6F6A5
:100BB000F5F5F5F7FAFCFE00020407080A0C0E0E24
:100BC0000D0C08070704020303020000030301FFE2
:100BD000FE00FEFCFEFFFFFEF9F7F7F8F8F9F9FA60
:100BE000FCFDFEFEFEFEFFFFFFFF0001020404020B
:100BF00003040204040607070303050503040605AE
:100C00000402020502FDFDFDFEFCF9FAFCFCFBF905
:100C1000F6F3F8F6F5F8F8F9FBFDFE000204050618
:100C200007080A0D0E0E0C0A08060501020402FE52
:100C30000101FD000401FAF6F6F8FAF5F5F6F7F809
:100C4000F8F8FAFCFF0101FE00020004060808069D
:100C50000503050002080801010406090A02FCFE5A
:100C6000FCFAFA0000000406FFFB0100FCFAFBFBA3
:100C7000FCFDFE00FBFBFFFFFDF3F7FAFAFCFDFEB7
:100C80000003050708050404070102090A05070A0D
:100C9000010106010002FBFE040C0CFDFD05FCF643
:100CA000F8F4F6F7F7F7F8FAFBFFFBFDFFFFF9F5AD
:100CB000FCFDFF0104040600FF06090C08030607FB
:100CC000090D0C03090AFD0103FC030302FDFE04E8
:100CD000FBF6FDFCF7F7F3F5F7F0F3F9FCFFFCF694
:100CE000FAFCFEFF00030507080A0B0D0B0B060BB1
:100CF0000B05060609040104FE0001F8FD01FFFDD5
:100D0000F9F7F5F5F9F7F7F9F9FAFBFBFDFEFBFF4B
:100D1000020406040305010701020505FE0204069C
:100D2000070904FF05000003FFFEFFFC00FF01FFB1
:100D300001FC0000FEFCFCFDFF00FFFE03FDF800CF
:100D4000F9FEFE00FBFDFFFEFF02000103FF0103B1
:100D5000010004040506060106050602030002FE62
:100D6000030305FF05FFFAFCF9FAFAFBFBFCFCFCA8
:100D7000FEFDF8FEFBFDFEFFFEFE01010102020486
:100D8000000104040605080803060704070302FF20
:100D9000FF0100FD01FDFFFDFFFCFAFAFAFBFAFB83
:100DA000FCF9FAFDFCFDFEFF0001FD020101030458
:100DB00004050606030305030405050403050305EE
:100DC00002FEFEFAFEFEFEFFFCFCFEFCF9FCFBFB55
:100DD000FCFDFDFFFEFCFFFF0102020403FF030018
:100DE00001020203000103020104020105010002E5
:100DF000010104FFFD00FCFF0000FEFFFF00FFFDFE
:100E0000FF00FF0000FCFDFBFCFDFE00FF0002FFF9
:100E1000FD01FDFF000001FF0001010204030406C3
:100E200003030504050601FF01020203FEFE00FCA8
:100E3000FFFCFAFDFCFCFDFCFAFBFAFBFBFEFEFFEF
:100E4000FF00FF0101010103030002030305060681
:100E5000060708040205030202FDFE0000FDFBFC7C
:100E6000FDFBFDFCFAFCFCFCFCFEFBFAFDFCFDFFBF
:100E70000000010204010203030405020104010150
:100E80000504030405020103020003FDFAFFFFFB52
:100E9000FBFEFDFDFEFEFEFCFDFEFEFFFDFEFFFF78
:100EA000FF000201010300000201010203FEFF0234
:100EB000FF000202020303030301010202FFFD001F
:100EC00001FCFE00FFFF0001FFFF01FEFF00FBFD34
:100ED000FEFDFEFF00FF0000FF0200FE0001FFFE1E
:100EE00001000101020203030404030304030401DB
:100EF000000100FEFEFEFDFFFFFFFE01FDFBFEFA0E
:100F0000FBFDFCFDFEFEFEFF0000010100010102F1
:100F100001000202020303040405050304050102A3
:100F200001FF0000FCFEFCFCFDFDFDFEFEFCFDFDE6
:100F3000FDFEFCFCFEFDFEFF0001020203030405B2
:100F40000201020002020003020203030203010184
:100F500001000101FCFFFDFCFDFDFDFEFEFEFFFFAB
:100F6000FF01FDFD00FEFF00000101FF0300000383
:100F7000010002FF02FFFD00FFFF01010103020269
:100F800003020303FF0101FF01FFFE00FF00000059
:100F90000002FEFE00FDFEFDFDFEFDFDFFFDFE006C
:100FA000FF0000000200FE00000001010203030434
:100FB000040405040304030302000000FDFEFEFD1B
:100FC000FEFFFDFEFEFDFEFCFBFDFCFDFEFEFEFF4A
:100FD00000000001010101020202010202020303FA
:100FE00003030303030203020101FFFFFEFEFDFDF5
:100FF000FEFDFEFEFEFFFEFEFEFEFFFEFEFFFF000C
:1010000000000101010202020201020100010100CF
:10101000010101010101010100000000FFFEFFFFCD
:10102000FFFFFFFFFFFF00000000FF0000FF0000C8
:101030000000000000000000000000000000FF00B1
:101040000000000000000101010101000101010098
:10105000000000000000000000D8000000800F80A9
:101060000F00000001000200030004000501000160
:101070000101020103010401050200020102020252
:101080000302040205030003010302030303040334
:10109000050400040104020403040404050500051A
:1010A0000105020503050405050600060106020602
:1010B00003060406050700070107020703070407E4
:1010C00005080008010802080308040805090009CA
:1010D0000109020903090409050A000A010A020AB2
:1010E000030A040A050B000B010B020B030B040B94
:1010F000050C000C010C020C030C040C050D000D7A
:10110000010D020D030D040D050E000E010E020E61
:10111000030E040E050F000F010F020F030F040F43
:101120000510001001100210031004100511001129
:101130000111021103110411051200120112021211
:1011400003120412051300130113021303130413F3
:1011500005140014011402140314041405150015D9
:1011600001150215031504150516001601160216C1
:1011700003160416051700170117021703170417A3
:101180000518001801180218031804180519001989
:101190000119021903190419051A001A011A021A71
:1011A000031A041A051B001B011B021B031B041B53
:1011B000051C001C011C021C031C041C051D001D39
:1011C000011D021D031D041D051E001E011E021E21
:1011D000031E041E051F001F011F021F031F041F03
:1011E00005000000000000000000000000000000FA
:1011F00000000000000000000000000000000000EF
:1012000000000000000000000000000000000000DE
:1012100000000000000000000000000000000000CE
:1012200000000000000000000000000000000000BE
:101230000000000049000000495252000052525C78
:101240002D00000000000000000000000000000071
:10125000000040000000494A52004952525B1C52B3
:10126000531C25241B2425251B0A0A2D1C12120A97
:101270000A00000000000000004049494949495265
:101280005B5B5B525B1C1C1312241C1209090912C4
:10129000090909090A0A0A0A0A0A13120A0A121390
:1012A0000A000000000000925252525252131213D0
:1012B00009001C0A1212401B65090A0009241B12AE
:1012C0000000251C1C010025241C1C0024252424AE
:1012D000240000000000005249494000001B135246
:1012E000494900641C1C5B4A481C651C2552491C6A
:1012F0001C652464491C1C652564491C1C6D2E5CFE
:10130000490000000000000000000000490000004B
:1013100000535200000053522500004A5225250078
:10132000005B251300005B53000A1C095B1C657FF2
:10133000374052522E2E1C525C2E251B1324251C86
:101340001C12002525120000121B0000132E37006E
:101350001B37372E2E37372E2E2E2E2E2E6E6E6EDC
:101360001C1313120009131200001213130012258C
:101370001C13132E371C131313361C131B1B1B2596
:10138000131C1C1B1B1B1C1C1C1C1C1C1C1C1C1CA9
:10139000131312121313001313131C000913131C3D
:1013A000010037131C13002E2E1C1C001C772E2549
:1013B00000137F251C010A37241C1C0A2E25250931
:1013C00000132E242525252E252525252525252DEB
:1013D0002E251B2E2E251C1325251C1C1C1C011C18
:1013E0001C1300011C0A000165775C016E7F6E52C0
:1013F0001B25256D1C524925251C1353001C1C1C44
:10140000524A001B135B5B000009525C0000005B4A
:101410005C000000001B0000000000000000000055
:1014200000135B7F776E6E136577766E6E1B657744
:101430007676761B5BBF76B67609136DBFB7B600BE
:101440001B125C76BF0000121B125B00000000093B
:101450000A6E6E6E77241C6E6E77251C1C6E776E7E
:101460001C1C1C76761C1C2425B765646D6D1B76D0
:101470006D6D5B09125B5C5B125B641213131B12D4
:10148000121C1C1C1C1C241C1C2425252424252562
:101490001B00002513000064BF00096EBFBF6D6E06
:1014A000BF6D5B12135B12131209000901000000EB
:1014B000002E1C0900096E010009767F7F12777FDC
:1014C0007F6412BF775B121B095B121B0900001BB4
:1014D0000900000000000000000000000000000003
:1014E000007F7F5313130064121B0100001B1200C6
:1014F00000000000000000000000000000000000EC
:1015000000000000000000000000000000000000DB
:10151000000000000000002600000026002F000050
:10152000002F00370000003700FF000000FF00BF61
:10153000000000BF00370000370000002626000032
:1015400000000000000000262626262600000000DD
:10155000002F000000003700000000FF0000000026
:10156000BF000000003700000000002626262626C7
:10157000000000000000002626262626002F00007E
:10158000000000370000000000FFFFFFFF0000BF69
:101590000000000000370000000000262626262656
:1015A000000000000000002626262600002F000074
:1015B000002F00370000003700FFFFFFFF0000BFD3
:1015C000000000BF00370000003700262626260056
:1015D00000000000000000000026262600002F006A
:1015E000002F00370000003700FF000000FF00BFA1
:1015F000000000BF0037000037000026262600004C
:10160000000000000000002600000026002F00005F
:10161000002F000037003700000000FF000000002E
:10162000BF00BF0000370000003700260000002682
:1016300000000000000000000000000000000000AA
:10164000000000000000000000000000000000009A
:10165000000000009B000000529BA400005B9B6DFB
:101660007700000000000000000000000000000003
:1016700000005B000000E4F6FF099BEDF6FFBFA44D
:10168000ADBFBFBFBF767F7FB7B7BF7F766EB7B73F
:10169000BF00000000000000005BB6F6F6F6FFFF9A
:1016A000FFFFBFFFFFFFBFBFAEFFFFFFB7AD65FF8F
:1016B000FFB7B6AD65FFFFBFB7AE6EFFFFBFB7B7F1
:1016C00065000000000000F6F6EDEDADA4B66D6D0E
:1016D0005C526E6565655265765C5C52536E24653E
:1016E00052526E25255B52772D2525526E6E2D2583
:1016F00025000000000000A49B9B4900006564A435
:101700009B92006D2525649349656E652E9B52243E
:10171000256D25655225246D2D655225256E2E6477
:101720005200000000000000000000004A0000001D
:10173000005B9B0000005B5B2D0000525B2E2E00C7
:10174000015B2D1C01005C5B014A654A5B1C6E7FDE
:1017500077495B9B77776D5B65776E65656D2D254A
:10176000255C522E25130949641C09095C7F7F09F9
:101770001C7F7F777F777F77777F7F7776777F7F15
:101780006E656E6EA4B6FF655BA4B7BFFF526DBFFA
:10179000BFBFFF7FBFBFBFBFFFBFBFB7BFFFFF7FE1
:1017A000B7BFBFFFFF6EB7BFBFFFFF77BFBFBFFFB2
:1017B000FFFFFFBFBFB75BFFFFBFBFA464FFFFBF5B
:1017C000ADA47FFFFFBFA4BF7FFFBFADBFBFBFFF03
:1017D000B6BFBFBF77F7BFBFBF7777FFBFBFBF64DD
:1017E000526D7F6E2E2D2D7F766E6E6E2E777777F3
:1017F000762E1C7F776E251C25776525251C096EA6
:101800006E1C0949255B494A6E7F645377BF775B3D
:101810005C256E6E255B4A25651C1B5B0025242418
:101820005B53001C1B5B5C00000A5B6400000064EF
:1018300064000000005C00000000000000000000E8
:10184000005B5C7FBF77765C6D7FB777775C6D7F81
:10185000BF77775C64BFBFBFBF0A5C6EBFBFBF000E
:1018600065646DBFBF00005B6D646D000000001219
:101870005B7777777F6E6E77777F766D7677BF77DA
:101880006D6E76BF7F6D6E767FBF7676BFBF76BF9B
:10189000BFBFB664ADADB6B6ADBFFF646DADB6AD9E
:1018A0006477BFBFBFFFFF77BFBFBFFFFF7FBFBF73
:1018B000BFFFF6BFB7ADF6FFFFA4ADFFFFFFFFFF11
:1018C000FFFFFFFFFFFFFFFFF6A4005B52000000D9
:1018D00000BFBFAD5B64BFB6ADADBFFFBFFFFFFFD5
:1018E000FFBF64FFFFBFB6765BFFBFBF5B0000FFBB
:1018F0005C0000000000000000000000000000008C
:1019000000BFBF645C5C006E5C654900006D5B00FD
:1019100000000000000000000000000000000000C7
:1019200000000000000000000000000000000000B7
:10193000000600040000000100020003000400058E
:101940000006000700080009000A000B000C000D4B
:10195000000E000F00100000001100120013001410
:1019600000150016000600030000001700180019FB
:10197000001A001B001C001D001E001F002000217B
:1019800000220023002400250026000000004088DB
:1019900091D2E4ADB5B6BEBFFF010100010C0D0D43
:1019A0000D3847565656568B9AA90707010203046D
:1019B0000506070E0F10111213141C1D1E1F2021E7
:1019C000222A2B2C2D2E2F30393A3B3C3D3E3F48CE
:1019D000494A4B4C4D4E5758595A5B5C5D070701BD
:1019E00008090A0B0C0715161718191A1B232425AA
:1019F0002627282931323334353637404142434493
:101A000045464F505152535455575E5F6061625D79
:101A10000707636465666768696F707172737475D0
:101A20007D7E7F808182838C8D8E8F9091929B9C16
:101A30009D9E9FA0A1AAABACADAEAFB0B8B9BABBEA
:101A4000BCBDBE0707636A6B6C6D6E69767778798B
:101A50007A7B7C8485868788898A939495969798E3
:101A600099A2A3A4A5A6A7A8B1B2B3B4B5B6B7B8B6
:101A7000BFC0C1C2C3BE00000000000000000000E3
:101A80000000000000000000000000000000000056
:101A90000000000000000000000000000000000046
:101AA0000000000000005252525252525252525202
:101AB0005252525252525252525252525252525206
:101AC00052525252525252525252525252525252F6
:101AD00052525252525252525252525252525252E6
:101AE0005252525252525252525252525252185210
:101AF000525252521852525252521852525252523A
:101B000018525252525252525252525252525252EF
:101B10005252525252525252525252525252181819
:101B2000525252521818525252521818525252527D
:101B300018185252525252525252525252525252F9
:101B400052525252525252525252525252521818E9
:101B500018525252181818525252181818525252FB
:101B60001818185252525252525252525252525203
:101B700052525252525252525252525252521818B9
:101B80001818525218181818525218181818525279
:101B9000181818185252525252525252525252520D
:101BA0005252525252525252525252525252181889
:101BB00018181852181818181852181818181852F7
:101BC0001818181818525252525252525252525217
:101BD0005252525252525252525252525252181859
:101BE0001818181818181818181818181818181875
:101BF0001818181818185252525252525252525221
:101C000052525252525252525252525252525252B4
:101C10005252521852525252521852525252521852
:101C200052525252521852525252525252525252CE
:101C30005252525252525252525252525252525284
:101C400052521818525252521818525252521818D0
:101C500052525252181852525252525252525252D8
:101C60005252525252525252525252525252525254
:101C7000521818185252521818185252521818184E
:101C800052525218181852525252525252525252E2
:101C90005252525252525252525252525252525224
:101CA00018181818525218181818525218181818CC
:101CB00052521818181852525252525252525252EC
:101CC000525252525252525252525252525252182E
:101CD0001818181852181818181852181818181810
:101CE000521818181818E1E1E1E1E1E1E1E1E1E160
:101CF000E1E1E1E1E1E1E1E1E1E1E1E1E1E1E1E1D4
:101D0000E1E1E1E1E1E1E1E1E1E1E1E1E1E1E1E1C3
:101D1000E1E1E1E1E1E118525252525218525252BD
:101D20005252185252525252185252525252525207
:101D30005252525252525252525252525252525283
:101D400052525252525218525252525218525252E7
:101D50005252185252525252185252525252185211
:101D600052525252185252525252185252525252C7
:101D700018525252525218525252525218525252F1
:101D8000525218525252525218525252525218181B
:101D9000525252521818525252521818525252520B
:101DA00018185252525218525252525218525252FB
:101DB00052521852525252521852525252521818EB
:101DC0001852525218181852525218181852525289
:101DD0001818185252521852525252521852525205
:101DE00052521852525252521852525252521818BB
:101DF0001818525218181818525218181818525207
:101E0000181818185252185252525252185252520E
:101E1000525218525252525218525252525218188A
:101E20001818185218181818185218181818185284
:101E30001818181818521852525252521852525218
:101E4000525218525252525218525252525218185A
:101E50001818181818181818181818181818181802
:101E600018181818181852525252521852525252E8
:101E700052185252525252185252525252185252F0
:101E80005252525252525252525252525252525232
:101E9000525252525252525252525218525252525C
:101EA00052185252525252185252525252185252C0
:101EB00052525218525252525218525252525218B0
:101EC0005252525252185252525252185252525266
:101ED0005218525252525218525252525218525290
:101EE000525218185252525218185252525218182E
:101EF0005252525218185252525252185252525270
:101F0000521852525252521852525252521852525F
:101F100052181818525252181818525252181818AB
:101F20005252521818185252525252185252525279
:101F3000521852525252521852525252521852522F
:101F40001818181852521818181852521818181829
:101F50005252181818185252525252185252525283
:101F60005218525252525218525252525218521839
:101F7000181818185218181818185218181818186D
:101F8000521818181818525252525218525252528D
:101F90005218525252525218525252525218181843
:101FA00018181818181818181818181818181818B1
:101FB0001818181818181818525252521818525245
:101FC00052521818525252521818525252525252D9
:101FD00052525252525252525252525252525252E1
:101FE00052525252525218185252525218185252B9
:101FF00052521818525252521818525252521852E3
:102000005252525218525252525218525252525224
:1020100018525252525218185252525218185252C2
:1020200052521818525252521818525252521818EC
:102030005252525218185252525218185252525268
:1020400018185252525218185252525218185252CC
:1020500052521818525252521818525252521818BC
:1020600018525252181818525252181818525252E6
:1020700018181852525218185252525218185252D6
:10208000525218185252525218185252525218188C
:102090001818525218181818525218181818525264
:1020A00018181818525218185252525218185252E0
:1020B000525218185252525218185252525218185C
:1020C00018181852181818181852181818181852E2
:1020D00018181818185218185252525218185252EA
:1020E000525218185252525218185252525218182C
:1020F0001818181818181818181818181818181860
:10210000181818181818525252521818525252527F
:1021100018185252525218185252525218185252FB
:10212000525252525252525252525252525252528F
:1021300052525252525252525252181852525252F3
:1021400018185252525218185252525218185252CB
:10215000525252185252525252185252525252180D
:1021600052525252521852525252181852525252FD
:10217000181852525252181852525252181852529B
:10218000525218185252525218185252525218188B
:102190005252525218185252525218185252525207
:1021A000181852525252181852525252181852526B
:1021B0005218181852525218181852525218181809
:1021C0005252521818185252525218185252525211
:1021D000181852525252181852525252181852523B
:1021E0001818181852521818181852521818181887
:1021F000525218181818525252521818525252521B
:102200001818525252521818525252521818521844
:1022100018181818521818181818521818181818CA
:102220005218181818185252525218185252525224
:10223000181852525252181852525252181818184E
:10224000181818181818181818181818181818180E
:102250001818181818181818185252521818185216
:1022600052521818185252521818185252525252AA
:10227000525252525252525252525252525252523E
:10228000525252525252181818525252181818528A
:1022900052521818185252521818185252521852B4
:1022A0005252525218525252525218525252525282
:1022B0001852525252521818185252521818185294
:1022C00052521818185252521818185252521818BE
:1022D00052525252181852525252181852525252C6
:1022E000181852525252181818525252181818529E
:1022F000525218181852525218181852525218188E
:102300001852525218181852525218181852525243
:1023100018181852525218181852525218181852A7
:10232000525218181852525218181852525218185D
:1023300018185252181818185252181818185252C1
:1023400018181818525218181852525218181852B1
:10235000525218181852525218181852525218182D
:10236000181818521818181818521818181818523F
:1023700018181818185218181852525218181852BB
:1023800052521818185252521818185252521818FD
:1023900018181818181818181818181818181818BD
:1023A0001818181818185252521818185252521851
:1023B00018185252521818185252521818185252CD
:1023C00052525252525252525252525252525252ED
:1023D00052525252525252525218181852525218C5
:1023E000181852525218181852525218181852529D
:1023F000525252185252525252185252525252186B
:1024000052525252521852525218181852525218CE
:10241000181852525218181852525218181852526C
:1024200052521818525252521818525252521818E8
:1024300052525252181852525218181852525218D8
:10244000181852525218181852525218181852523C
:102450005218181852525218181852525218181866
:1024600052525218181852525218181852525218E2
:10247000181852525218181852525218181852520C
:1024800018181818525218181818525218181818E4
:1024900052521818181852525218181852525218EC
:1024A0001818525252181818525252181818521816
:1024B0001818181852181818181852181818181828
:1024C00052181818181852525218181852525218F6
:1024D0001818525252181818525252181818181820
:1024E000181818181818181818181818181818186C
:1024F000181818181818E1EBE1EBE1EBE1E1E1E164
:10250000E1E1E1E1E1E1E1E1EBE1EBE1EBE1E1E19D
:10251000E1E1E1E1E1EBE1EBE1EBEBE1EBE1EBE16F
:10252000E1EBE1EBE1EB18181818525218181818E3
:10253000525218181818525218181818525252524B
:10254000525252525252525252525252525252526B
:10255000525252525252181818185252181818182B
:102560005252181818185252181818185252185255
:1025700052525252185252525252185252525252AF
:102580001852525252521818181852521818181835
:10259000525218181818525218181818525218185F
:1025A00052525252181852525252181852525252F3
:1025B000181852525252181818185252181818183F
:1025C000525218181818525218181818525218182F
:1025D0001852525218181852525218181852525271
:1025E0001818185252521818181852521818181849
:1025F00052521818181852521818181852521818FF
:1026000018185252181818185252181818185252EE
:102610001818181852521818181852521818181852
:1026200052521818181852521818181852521818CE
:10263000181818521818181818521818181818526C
:10264000181818181852181818185252181818185C
:10265000525218181818525218181818525218189E
:1026600018181818181818181818181818181818EA
:1026700018181818181852521818181852521818F2
:10268000181852521818181852521818181852526E
:10269000525252525252525252525252525252521A
:1026A0005252525252525252181818185252181866
:1026B000181852521818181852521818181852523E
:1026C0005252521852525252521852525252521898
:1026D0005252525252185252181818185252181870
:1026E000181852521818181852521818181852520E
:1026F0005252181852525252181852525252181816
:102700005252525218185252181818185252181879
:1027100018185252181818185252181818185252DD
:102720005218181852525218181852525218181893
:102730005252521818185252181818185252181883
:1027400018185252181818185252181818185252AD
:102750001818181852521818181852521818181811
:10276000525218181818525218181818525218188D
:1027700018185252181818185252181818185218B7
:102780001818181852181818181852181818181855
:102790005218181818185252181818185252181897
:1027A00018185252181818185252181818181818C1
:1027B0001818181818181818181818181818181899
:1027C000181818181818EBE1EBE1EBE1E1EBE1EB7D
:1027D000E1EBEBE1EBE1EBE1EBEBEBEBEBEBE1EB7B
:1027E000E1EBE1EBEBEBEBEBEBEBEBEBEBEBEBEB4D
:1027F000EBE1EBE1EBE1181818181852181818184B
:102800001852181818181852181818181852525226
:102810005252525252525252525252525252525298
:102820005252525252521818181818521818181892
:102830001852181818181852181818181852185230
:1028400052525252185252525252185252525252DC
:10285000185252525252181818181852181818189C
:10286000185218181818185218181818185218183A
:102870005252525218185252525218185252525220
:1028800018185252525218181818185218181818A6
:10289000185218181818185218181818185218180A
:1028A000185252521818185252521818185252529E
:1028B00018181852525218181818185218181818B0
:1028C00018521818181818521818181818521818DA
:1028D000181852521818181852521818181852521C
:1028E00018181818525218181818185218181818BA
:1028F00018521818181818521818181818521818AA
:102900001818185218181818185218181818185299
:1029100018181818185218181818185218181818C3
:102920001852181818181852181818181852181879
:102930001818181818181818181818181818181817
:102940001818181818185218181818185218181893
:10295000181852181818181852181818181852520F
:102960005252525252525252525252525252525247
:102970005252525252525218181818185218181807
:1029800018185218181818185218181818185252DF
:1029900052525218525252525218525252525218C5
:1029A0005252525252185218181818185218181811
:1029B00018185218181818185218181818185252AF
:1029C0005252181852525252181852525252181843
:1029D000525252521818521818181818521818181B
:1029E000181852181818181852181818181852527F
:1029F00052181818525252181818525252181818C1
:102A00005252521818185218181818185218181824
:102A1000181852181818181852181818181852524E
:102A2000181818185252181818185252181818183E
:102A3000525218181818521818181818521818182E
:102A40001818521818181818521818181818521858
:102A50001818181852181818181852181818181882
:102A60005218181818185218181818185218181838
:102A70001818521818181818521818181818181862
:102A800018181818181818181818181818181818C6
:102A9000181818181818EBEBEBEBEBEBEBEBEBEB78
:102AA000EBEBEBEBEBEBEBEBEBEBEBEBEBEBEBEB76
:102AB000EBEBEBEBEBEBEBEBEBEBEBEBEBEBEBEB66
:102AC000EBEBEBEBEBEB1818181818181818181894
:102AD0001818181818181818181818181818525202
:102AE00052525252525252525252525252525252C6
:102AF00052525252525218181818181818181818FA
:102B0000181818181818181818181818181818520B
:102B10005252525218525252525218525252525209
:102B20001852525252521818181818181818181803
:102B30001818181818181818181818181818181815
:102B4000525252521818525252521818525252524D
:102B5000181852525252181818181818181818180D
:102B600018181818181818181818181818181818E5
:102B700018525252181818525252181818525252CB
:102B80001818185252521818181818181818181817
:102B900018181818181818181818181818181818B5
:102BA0001818525218181818525218181818525249
:102BB0001818181852521818181818181818181821
:102BC0001818181818181818181818181818181885
:102BD00018181852181818181852181818181852C7
:102BE000181818181852181818181818181818182B
:102BF0001818181818181818181818181818181855
:102C00001818181818181818181818181818181844
:102C10001818181818181818181818181818181834
:102C200018181818181818181818181818185252B0
:102C30005252521852525252521852525252521822
:102C400052525252521818181818181818181818E2
:102C50001818181818181818181818181818525280
:102C600052521818525252521818525252521818A0
:102C700052525252181818181818181818181818EC
:102C80001818181818181818181818181818525250
:102C9000521818185252521818185252521818181E
:102CA00052525218181818181818181818181818F6
:102CB0001818181818181818181818181818525220
:102CC000181818185252181818185252181818189C
:102CD0005252181818181818181818181818181800
:102CE000181818181818181818181818181852182A
:102CF00018181818521818181818521818181818E0
:102D0000521818181818ADADADADADADADADADAD37
:102D1000ADADADADADADADADADADADADADADADADE3
:102D2000ADADADADADADADADADADADADADADADADD3
:102D3000ADADADADADADADADADADADADADADADADC3
:102D4000ADADADADADADADADADADADADADAD28AD38
:102D5000ADADADAD28ADADADADAD28ADADADADADAD
:102D600028ADADADADADADADADADADADADADADAD18
:102D7000ADADADADADADADADADADADADADAD28288D
:102D8000ADADADAD2828ADADADAD2828ADADADAD87
:102D90002828ADADADADADADADADADADADADADAD6D
:102DA000ADADADADADADADADADADADADADAD28285D
:102DB00028ADADAD282828ADADAD282828ADADADE6
:102DC000282828ADADADADADADADADADADADADADC2
:102DD000ADADADADADADADADADADADADADAD28282D
:102DE0002828ADAD28282828ADAD28282828ADAD45
:102DF00028282828ADADADADADADADADADADADAD17
:102E0000ADADADADADADADADADADADADADAD2828FC
:102E1000282828AD2828282828AD2828282828ADA3
:102E20002828282828ADADADADADADADADADADAD6B
:102E3000ADADADADADADADADADADADADADAD2828CC
:102E40002828282828282828282828282828282802
:102E5000282828282828ADADADADADADADADADADC0
:102E6000ADADADADADADADADADADADADADADADAD92
:102E7000ADADAD28ADADADADAD28ADADADADAD2811
:102E8000ADADADADAD28ADADADADADADADADADADF7
:102E9000ADADADADADADADADADADADADADADADAD62
:102EA000ADAD2828ADADADAD2828ADADADAD282870
:102EB000ADADADAD2828ADADADADADADADADADAD4C
:102EC000ADADADADADADADADADADADADADADADAD32
:102ED000AD282828ADADAD282828ADADAD282828CF
:102EE000ADADAD282828ADADADADADADADADADADA1
:102EF000ADADADADADADADADADADADADADADADAD02
:102F000028282828ADAD28282828ADAD282828282D
:102F1000ADAD28282828ADADADADADADADADADADF5
:102F2000ADADADADADADADADADADADADADADAD2856
:102F300028282828AD2828282828AD282828282807
:102F4000AD282828282828ADADADADAD28ADADAD54
:102F5000ADAD28ADADADADAD28ADADADADADADADAB
:102F6000ADADADADADADADADADADADADADADADAD91
:102F7000ADADADADADAD28ADADADADAD28ADADAD8B
:102F8000ADAD28ADADADADAD28ADADADADAD28AD00
:102F9000ADADADAD28ADADADADAD28ADADADADAD6B
:102FA00028ADADADADAD28ADADADADAD28ADADADE0
:102FB000ADAD28ADADADADAD28ADADADADAD282855
:102FC000ADADADAD2828ADADADAD2828ADADADAD45
:102FD0002828ADADADAD28ADADADADAD28ADADAD35
:102FE000ADAD28ADADADADAD28ADADADADAD282825
:102FF00028ADADAD282828ADADAD282828ADADADA4
:10300000282828ADADAD28ADADADADAD28ADADAD89
:10301000ADAD28ADADADADAD28ADADADADAD2828F4
:103020002828ADAD28282828ADAD28282828ADAD02
:1030300028282828ADAD28ADADADADAD28ADADADDE
:10304000ADAD28ADADADADAD28ADADADADAD2828C4
:10305000282828AD2828282828AD2828282828AD61
:103060002828282828AD28ADADADADAD28ADADAD33
:10307000ADAD28ADADADADAD28ADADADADAD282894
:1030800028282828282828282828282828282828C0
:10309000282828282828ADADADADAD28ADADADAD03
:1030A000AD28ADADADADAD28ADADADADAD28ADADDF
:1030B000ADADADADADADADADADADADADADADADAD40
:1030C000ADADADADADADADADADADAD28ADADADADB5
:1030D000AD28ADADADADAD28ADADADADAD28ADADAF
:1030E000ADADAD28ADADADADAD28ADADADADAD289F
:1030F000ADADADADAD28ADADADADAD28ADADADAD0A
:10310000AD28ADADADADAD28ADADADADAD28ADAD7E
:10311000ADAD2828ADADADAD2828ADADADAD2828FD
:10312000ADADADAD2828ADADADADAD28ADADADAD5E
:10313000AD28ADADADADAD28ADADADADAD28ADAD4E
:10314000AD282828ADADAD282828ADADAD2828285C
:10315000ADADAD282828ADADADADAD28ADADADADB3
:10316000AD28ADADADADAD28ADADADADAD28ADAD1E
:1031700028282828ADAD28282828ADAD28282828BB
:10318000ADAD28282828ADADADADAD28ADADADAD08
:10319000AD28ADADADADAD28ADADADADAD28AD2873
:1031A00028282828AD2828282828AD282828282895
:1031B000AD2828282828ADADADADAD28ADADADAD5D
:1031C000AD28ADADADADAD28ADADADADAD282828C8
:1031D000282828282828282828282828282828286F
:1031E0002828282828282828ADADADAD2828ADAD41
:1031F000ADAD2828ADADADAD2828ADADADADADAD13
:10320000ADADADADADADADADADADADADADADADADEE
:10321000ADADADADADAD2828ADADADAD2828ADADF2
:10322000ADAD2828ADADADAD2828ADADADAD28AD67
:10323000ADADADAD28ADADADADAD28ADADADADADC8
:1032400028ADADADADAD2828ADADADAD2828ADAD47
:10325000ADAD2828ADADADAD2828ADADADAD2828BC
:10326000ADADADAD2828ADADADAD2828ADADADADA2
:103270002828ADADADAD2828ADADADAD2828ADAD9C
:10328000ADAD2828ADADADAD2828ADADADAD28288C
:1032900028ADADAD282828ADADAD282828ADADAD01
:1032A000282828ADADAD2828ADADADAD2828ADADF1
:1032B000ADAD2828ADADADAD2828ADADADAD28285C
:1032C0002828ADAD28282828ADAD28282828ADAD60
:1032D00028282828ADAD2828ADADADAD2828ADAD46
:1032E000ADAD2828ADADADAD2828ADADADAD28282C
:1032F000282828AD2828282828AD2828282828ADBF
:103300002828282828AD2828ADADADAD2828ADAD9A
:10331000ADAD2828ADADADAD2828ADADADAD2828FB
:10332000282828282828282828282828282828281D
:10333000282828282828ADADADAD2828ADADADADE5
:103340002828ADADADAD2828ADADADAD2828ADADCB
:10335000ADADADADADADADADADADADADADADADAD9D
:10336000ADADADADADADADADADAD2828ADADADAD97
:103370002828ADADADAD2828ADADADAD2828ADAD9B
:10338000ADADAD28ADADADADAD28ADADADADAD28FC
:10339000ADADADADAD28ADADADAD2828ADADADADEC
:1033A0002828ADADADAD2828ADADADAD2828ADAD6B
:1033B000ADAD2828ADADADAD2828ADADADAD28285B
:1033C000ADADADAD2828ADADADAD2828ADADADAD41
:1033D0002828ADADADAD2828ADADADAD2828ADAD3B
:1033E000AD282828ADADAD282828ADADAD282828BA
:1033F000ADADAD282828ADADADAD2828ADADADAD96
:103400002828ADADADAD2828ADADADAD2828ADAD0A
:1034100028282828ADAD28282828ADAD2828282818
:10342000ADAD28282828ADADADAD2828ADADADADEA
:103430002828ADADADAD2828ADADADAD2828AD285F
:1034400028282828AD2828282828AD2828282828F2
:10345000AD2828282828ADADADAD2828ADADADAD3F
:103460002828ADADADAD2828ADADADAD28282828B4
:1034700028282828282828282828282828282828CC
:10348000282828282828EBFDEBFDEBFDEBEBEBEBE8
:10349000EBEBEBEBEBEBEBEBFDEBFDEBFDEBEBEB46
:1034A000EBEBEBEBEBFDEBFDEBFDFDEBFDEBFDEB00
:1034B000EBFDEBFDEBFD282828ADADAD282828ADB0
:1034C000ADAD282828ADADAD282828ADADADADAD4A
:1034D000ADADADADADADADADADADADADADADADAD1C
:1034E000ADADADADADAD282828ADADAD282828AD2A
:1034F000ADAD282828ADADAD282828ADADAD28AD9F
:10350000ADADADAD28ADADADADAD28ADADADADADF5
:1035100028ADADADADAD282828ADADAD282828AD7E
:10352000ADAD282828ADADAD282828ADADAD2828F3
:10353000ADADADAD2828ADADADAD2828ADADADADCF
:103540002828ADADADAD282828ADADAD282828ADD3
:10355000ADAD282828ADADAD282828ADADAD2828C3
:1035600028ADADAD282828ADADAD282828ADADAD2E
:10357000282828ADADAD282828ADADAD282828AD28
:10358000ADAD282828ADADAD282828ADADAD282893
:103590002828ADAD28282828ADAD28282828ADAD8D
:1035A00028282828ADAD282828ADADAD282828AD7D
:1035B000ADAD282828ADADAD282828ADADAD282863
:1035C000282828AD2828282828AD2828282828ADEC
:1035D0002828282828AD282828ADADAD282828ADD2
:1035E000ADAD282828ADADAD282828ADADAD282833
:1035F000282828282828282828282828282828284B
:10360000282828282828ADADAD282828ADADAD281C
:103610002828ADADAD282828ADADAD282828ADAD02
:10362000ADADADADADADADADADADADADADADADADCA
:10363000ADADADADADADADADAD282828ADADAD28CE
:103640002828ADADAD282828ADADAD282828ADADD2
:10365000ADADAD28ADADADADAD28ADADADADAD2829
:10366000ADADADADAD28ADADAD282828ADADAD2823
:103670002828ADADAD282828ADADAD282828ADADA2
:10368000ADAD2828ADADADAD2828ADADADAD282888
:10369000ADADADAD2828ADADAD282828ADADAD2878
:1036A0002828ADADAD282828ADADAD282828ADAD72
:1036B000AD282828ADADAD282828ADADAD282828E7
:1036C000ADADAD282828ADADAD282828ADADAD28CD
:1036D0002828ADADAD282828ADADAD282828ADAD42
:1036E00028282828ADAD28282828ADAD2828282846
:1036F000ADAD28282828ADADAD282828ADADAD2822
:103700002828ADADAD282828ADADAD282828AD2896
:1037100028282828AD2828282828AD28282828281F
:10372000AD2828282828ADADAD282828ADADAD2876
:103730002828ADADAD282828ADADAD2828282828EB
:1037400028282828282828282828282828282828F9
:10375000282828282828FDEBFDEBFDEBEBFDEBFDF1
:10376000EBFDFDEBFDEBFDEBFDFDFDFDFDFDEBFDE3
:10377000EBFDEBFDFDFDFDFDFDFDFDFDFDFDFDFD9D
:10378000FDEBFDEBFDEB28282828ADAD28282828E7
:10379000ADAD28282828ADAD28282828ADADADAD81
:1037A000ADADADADADADADADADADADADADADADAD49
:1037B000ADADADADADAD28282828ADAD2828282861
:1037C000ADAD28282828ADAD28282828ADAD28ADD6
:1037D000ADADADAD28ADADADADAD28ADADADADAD23
:1037E00028ADADADADAD28282828ADAD28282828B6
:1037F000ADAD28282828ADAD28282828ADAD28282B
:10380000ADADADAD2828ADADADAD2828ADADADADFC
:103810002828ADADADAD28282828ADAD282828280A
:10382000ADAD28282828ADAD28282828ADAD2828FA
:1038300028ADADAD282828ADADAD282828ADADAD5B
:10384000282828ADADAD28282828ADAD282828285F
:10385000ADAD28282828ADAD28282828ADAD2828CA
:103860002828ADAD28282828ADAD28282828ADADBA
:1038700028282828ADAD28282828ADAD28282828B4
:10388000ADAD28282828ADAD28282828ADAD28289A
:10389000282828AD2828282828AD2828282828AD19
:1038A0002828282828AD28282828ADAD2828282809
:1038B000ADAD28282828ADAD28282828ADAD28286A
:1038C0002828282828282828282828282828282878
:1038D000282828282828ADAD28282828ADAD282854
:1038E0002828ADAD28282828ADAD28282828ADAD3A
:1038F000ADADADADADADADADADADADADADADADADF8
:10390000ADADADADADADADAD28282828ADAD282805
:103910002828ADAD28282828ADAD28282828ADAD09
:10392000ADADAD28ADADADADAD28ADADADADAD2856
:10393000ADADADADAD28ADAD28282828ADAD28285A
:103940002828ADAD28282828ADAD28282828ADADD9
:10395000ADAD2828ADADADAD2828ADADADAD2828B5
:10396000ADADADAD2828ADAD28282828ADAD2828AF
:103970002828ADAD28282828ADAD28282828ADADA9
:10398000AD282828ADADAD282828ADADAD28282814
:10399000ADADAD282828ADAD28282828ADAD282804
:1039A0002828ADAD28282828ADAD28282828ADAD79
:1039B00028282828ADAD28282828ADAD2828282873
:1039C000ADAD28282828ADAD28282828ADAD282859
:1039D0002828ADAD28282828ADAD28282828AD28CE
:1039E00028282828AD2828282828AD28282828284D
:1039F000AD2828282828ADAD28282828ADAD2828AE
:103A00002828ADAD28282828ADAD28282828282822
:103A10002828282828282828282828282828282826
:103A2000282828282828FDFDFDFDFDFDFDFDFDFDC4
:103A3000FDFDFDFDFDFDFDFDFDFDFDFDFDFDFDFDB6
:103A4000FDFDFDFDFDFDFDFDFDFDFDFDFDFDFDFDA6
:103A5000FDFDFDFDFDFD2828282828AD2828282863
:103A600028AD2828282828AD2828282828ADADAD3D
:103A7000ADADADADADADADADADADADADADADADAD76
:103A8000ADADADADADAD2828282828AD2828282813
:103A900028AD2828282828AD2828282828AD28AD92
:103AA000ADADADAD28ADADADADAD28ADADADADAD50
:103AB00028ADADADADAD2828282828AD2828282868
:103AC00028AD2828282828AD2828282828AD2828E7
:103AD000ADADADAD2828ADADADAD2828ADADADAD2A
:103AE0002828ADADADAD2828282828AD28282828BD
:103AF00028AD2828282828AD2828282828AD2828B7
:103B000028ADADAD282828ADADAD282828ADADAD88
:103B1000282828ADADAD2828282828AD2828282811
:103B200028AD2828282828AD2828282828AD282886
:103B30002828ADAD28282828ADAD28282828ADADE7
:103B400028282828ADAD2828282828AD2828282866
:103B500028AD2828282828AD2828282828AD282856
:103B6000282828AD2828282828AD2828282828AD46
:103B70002828282828AD2828282828AD28282828BB
:103B800028AD2828282828AD2828282828AD282826
:103B900028282828282828282828282828282828A5
:103BA000282828282828AD2828282828AD2828288B
:103BB0002828AD2828282828AD2828282828ADAD71
:103BC000ADADADADADADADADADADADADADADADAD25
:103BD000ADADADADADADAD2828282828AD2828283D
:103BE0002828AD2828282828AD2828282828ADAD41
:103BF000ADADAD28ADADADADAD28ADADADADAD2884
:103C0000ADADADADAD28AD2828282828AD28282891
:103C10002828AD2828282828AD2828282828ADAD10
:103C2000ADAD2828ADADADAD2828ADADADAD2828E2
:103C3000ADADADAD2828AD2828282828AD282828E6
:103C40002828AD2828282828AD2828282828ADADE0
:103C5000AD282828ADADAD282828ADADAD28282841
:103C6000ADADAD282828AD2828282828AD2828283B
:103C70002828AD2828282828AD2828282828ADADB0
:103C800028282828ADAD28282828ADAD28282828A0
:103C9000ADAD28282828AD2828282828AD28282890
:103CA0002828AD2828282828AD2828282828AD2805
:103CB00028282828AD2828282828AD28282828287A
:103CC000AD2828282828AD2828282828AD282828E5
:103CD0002828AD2828282828AD282828282828285A
:103CE0002828282828282828282828282828282854
:103CF0002828282828282828282828282828282844
:103D00002828282828282828282828282828ADAD29
:103D1000ADADADADADADADADADADADADADADADADD3
:103D2000ADADADADADAD28282828282828282828F5
:103D3000282828282828282828282828282828AD7E
:103D4000ADADADAD28ADADADADAD28ADADADADADAD
:103D500028ADADADADAD282828282828282828284A
:103D600028282828282828282828282828282828D3
:103D7000ADADADAD2828ADADADAD2828ADADADAD87
:103D80002828ADADADAD282828282828282828289F
:103D900028282828282828282828282828282828A3
:103DA00028ADADAD282828ADADAD282828ADADADE6
:103DB000282828ADADAD28282828282828282828F4
:103DC0002828282828282828282828282828282873
:103DD0002828ADAD28282828ADAD28282828ADAD45
:103DE00028282828ADAD2828282828282828282849
:103DF0002828282828282828282828282828282843
:103E0000282828AD2828282828AD2828282828ADA3
:103E10002828282828AD282828282828282828289D
:103E20002828282828282828282828282828282812
:103E30002828282828282828282828282828282802
:103E400028282828282828282828282828282828F2
:103E50002828282828282828282828282828ADADD8
:103E6000ADADAD28ADADADADAD28ADADADADAD2811
:103E7000ADADADADAD282828282828282828282829
:103E80002828282828282828282828282828ADADA8
:103E9000ADAD2828ADADADAD2828ADADADAD282870
:103EA000ADADADAD2828282828282828282828287E
:103EB0002828282828282828282828282828ADAD78
:103EC000AD282828ADADAD282828ADADAD282828CF
:103ED000ADADAD28282828282828282828282828D3
:103EE0002828282828282828282828282828ADAD48
:103EF00028282828ADAD28282828ADAD282828282E
:103F0000ADAD282828282828282828282828282827
:103F10002828282828282828282828282828AD289C
:103F200028282828AD2828282828AD282828282807
:103F3000AD282828282811241FBECFEFD0E1DEBFEE
:103F4000CDBF14BE88E10FB6F89480936000109244
:103F500060000FBE12E0A0E0B1E0E8E1FAE602C0C6
:103F600005900D92A83DB107D9F71FE0A0EEB2E091
:103F700001C01D92A43AB107E1F70E94742C882376
:103F800011F40E948A2CF894E1EEFCE080E8819321
:103F90009EE0ED3EF907D9F781EE9CE09093EE0E9E
:103FA0008093ED0E1092EF0E1092F20E1092F80E1A
:103FB0001092FE0E1092040F1092C40C1092C60CB8
:103FC00082E18093C50C80ED8093CE0C8093CC0C65
:103FD00088E18093CD0C8093CB0C1092D20C109280
:103FE000D10C1092D60C1092D50C81E08093F10E7A
:103FF0000E94943220E930E0F90185919491FC010E
:10400000F07090832E5F3F4F80E02E3B3807A1F782
:1040100078940E94BB320E9496340C940A350C941A
:104020000000ECEDEA950C941520E1F700C000C00B
:1040300040912508509126084ABD5BBDC0912B08D0
:10404000D0912C0840902D0850902E089090270871
:10405000F0902208E0902A0870912108672F67707D
:10406000882400EDA02EAAEAB8E073D00027E10171
:10407000D30108B9F1E0E091BA0C119311931193B7
:10408000119311931193E091BB0C11931193119320
:10409000119311931193E091BC0C1193119311930F
:1040A000119311931193E091BD0C119311931193FE
:1040B000119311931193E091BE0C119311931193ED
:1040C00011931193119363957395FA94A9F48394C2
:1040D0000FE0809EF001E05EF74F058016800ABC7D
:1040E0001BBCC385D485458456849780F280E284C6
:1040F0007181672F677008C0000000000000000099
:10410000000009E00A95F1F7791509F4E20109F4D4
:10411000772709F46627AA9441F0683019F000C0A7
:1041200000C0A3CF6627A096A0CFC895C8950E94CF
:10413000A2264091C50C405D4093C50CE091C60C91
:1041400042E0E160E427E093C60CE2E0E093360051
:1041500008952898E091ED0EF091EE0E01912EE079
:10416000ED3EF20721EE3CE00093B30008F0F901C8
:10417000E093ED0EF093EE0E1E01C090A808D090D3
:10418000A90880E323E036E0D1E040EC57E098E076
:104190000D91099F112D0F71FA01029FE00DF11D84
:1041A0000281C081F601089FE00DF11D139FE00D13
:1041B000F11DC093BA0C05900992059009920590E3
:1041C00009920590099205900992059009920D9126
:1041D000099F112D0F71FA01029FE00DF11D02815F
:1041E000C081F601089FE00DF11D139FE00DF11D48
:1041F000C093BB0C05900992059009920590099215
:10420000059009920D91289A0590099205900992BE
:10421000099F112D0F71FA01029FE00DF11D02811E
:10422000C081F601089FE00DF11D139FE00DF11D07
:10423000C093BC0C059009920590099205900992D3
:104240000590099205900992059009920D91099F98
:10425000112D0F71FA01029FE00DF11D0281C08145
:10426000F601089FE00DF11D139FE00DF11DC093B5
:10427000BD0C059009920590099205900992059050
:10428000099205900992059009920D91099F112DAF
:104290000F71FA01029FE00DF11D0281C081F6014C
:1042A000089FE00DF11D139FE00DF11DC093BE0CA2
:1042B000059009920590099205900992059009923E
:1042C0000590099205900992E1013D01DE011EEF82
:1042D0004AB55BB5639FC0013A2F307ECE2DCC0F1F
:1042E000DD27C057DE4FE991F881C6E0D1E0CC90E0
:1042F00020E3C29EA395AF71A32B040E151E080EDA
:10430000191E0994F001C895C895C895C8950591DE
:10431000D990D1120D2D08B9CC900591D990D11218
:104320000D2D08B9C29E0591D990D1120D2D08B955
:10433000040E151E0591D990D1120D2D08B9080E45
:10434000191E0591D990D1120D2D08B9A395AF7101
:104350000591D990D1120D2D08B9A32BF00105912B
:10436000D990D1120D2D08B9CC900591D990D112C8
:104370000D2D08B9C29E0591D990D1120D2D08B905
:10438000040E151E0591D990D1120D2D08B9080EF5
:10439000191E0591D990D1120D2D08B9A395AF71B1
:1043A0000591D990D1120D2D08B9A32BF0010591DB
:1043B000D990D1120D2D08B9CC900591D990D11278
:1043C0000D2D08B9C29E0591D990D1120D2D08B9B5
:1043D000040E151E0591D990D1120D2D08B9080EA5
:1043E000191E0591D990D1120D2D08B9A395AF7161
:1043F0000591D990D1120D2D08B9A32BF00105918B
:10440000D990D1120D2D08B9CC900591D990D11227
:104410000D2D08B9C29E0591D990D1120D2D08B964
:10442000040E151E0591D990D1120D2D08B9080E54
:10443000191E0591D990D1120D2D08B9A395AF7110
:104440000591D990D1120D2D08B9A32BF00105913A
:10445000D990D1120D2D08B9CC900591D990D112D7
:104460000D2D08B9C29E0591D990D1120D2D08B914
:10447000040E151E0591D990D1120D2D08B9080E04
:10448000191E0591D990D1120D2D08B9A395AF71C0
:104490000591D990D1120D2D08B9A32BF0010591EA
:1044A000D990D1120D2D08B9CC900591D990D11287
:1044B0000D2D08B9C29E0591D990D1120D2D08B9C4
:1044C000040E151E0591D990D1120D2D08B9080EB4
:1044D000191E0591D990D1120D2D08B9A395AF7170
:1044E0000591D990D1120D2D08B9A32BF00105919A
:1044F000D990D1120D2D08B9CC900591D990D11237
:104500000D2D08B9C29E0591D990D1120D2D08B973
:10451000040E151E0591D990D1120D2D08B9080E63
:10452000191E0591D990D1120D2D08B9A395AF711F
:104530000591D990D1120D2D08B9A32BF001059149
:10454000D990D1120D2D08B9CC900591D990D112E6
:104550000D2D08B9C29E0591D990D1120D2D08B923
:10456000040E151E0591D990D1120D2D08B9080E13
:10457000191E0591D990D1120D2D08B9A395AF71CF
:104580000591D990D1120D2D08B9A32BF0010591F9
:10459000D990D1120D2D08B9CC900591D990D11296
:1045A0000D2D08B9C29E0591D990D1120D2D08B9D3
:1045B000040E151E0591D990D1120D2D08B9080EC3
:1045C000191E0591D990D1120D2D08B9A395AF717F
:1045D0000591D990D1120D2D08B9A32BF0010591A9
:1045E000D990D1120D2D08B9CC900591D990D11246
:1045F0000D2D08B9C29E0591D990D1120D2D08B983
:10460000040E151E0591D990D1120D2D08B9080E72
:10461000191E0591D990D1120D2D08B9A395AF712E
:104620000591D990D1120D2D08B9A32BF001059158
:10463000D990D1120D2D08B9CC900591D990D112F5
:104640000D2D08B9C29E0591D990D1120D2D08B932
:10465000040E151E0591D990D1120D2D08B9080E22
:10466000191E0591D990D1120D2D08B9A395AF71DE
:104670000591D990D1120D2D08B9A32BF001059108
:10468000D990D1120D2D08B9CC900591D990D112A5
:104690000D2D08B9C29E0591D990D1120D2D08B9E2
:1046A000040E151E0591D990D1120D2D08B9080ED2
:1046B000191E0591D990D1120D2D08B9A395AF718E
:1046C0000591D990D1120D2D08B9A32BF0010591B8
:1046D000D990D1120D2D08B9CC900591D990D11255
:1046E0000D2D08B9C29E0591D990D1120D2D08B992
:1046F000040E151E0591D990D1120D2D08B9080E82
:10470000191E0591D990D1120D2D08B9A395AF713D
:104710000591D990D1120D2D08B9A32BF001059167
:10472000D990D1120D2D08B9CC900591D990D11204
:104730000D2D08B9C29E0591D990D1120D2D08B941
:10474000040E151E0591D990D1120D2D08B9080E31
:10475000191E0591D990D1120D2D08B9A395AF71ED
:104760000591D990D1120D2D08B9A32BF001059117
:10477000D990D1120D2D08B9CC900591D990D112B4
:104780000D2D08B9C29E0591D990D1120D2D08B9F1
:10479000040E151E0591D990D1120D2D08B9080EE1
:1047A000191E0591D990D1120D2D08B9A395AF719D
:1047B0000591D990D1120D2D08B9A32BF0010591C7
:1047C000D990D1120D2D08B9CC900591D990D11264
:1047D0000D2D08B9C29E0591D990D1120D2D08B9A1
:1047E000040E151E0591D990D1120D2D08B9080E91
:1047F000191E0591D990D1120D2D08B9A395AF714D
:104800000591D990D1120D2D08B9A32BF001059176
:10481000D990D1120D2D08B9CC900591D990D11213
:104820000D2D08B9C29E0591D990D1120D2D08B950
:10483000040E151E0591D990D1120D2D08B9080E40
:10484000191E0591D990D1120D2D08B9A395AF71FC
:104850000591D990D1120D2D08B9A32BF001059126
:10486000D990D1120D2D08B9CC900591D990D112C3
:104870000D2D08B9C29E0591D990D1120D2D08B900
:10488000040E151E0591D990D1120D2D08B9080EF0
:10489000191E0591D990D1120D2D08B9A395AF71AC
:1048A0000591D990D1120D2D08B9A32BF0010591D6
:1048B000D990D1120D2D08B9CC900591D990D11273
:1048C0000D2D08B9C29E0591D990D1120D2D08B9B0
:1048D000040E151E0591D990D1120D2D08B9080EA0
:1048E000191E0591D990D1120D2D08B9A395AF715C
:1048F0000591D990D1120D2D08B9A32BF001059186
:10490000D990D1120D2D08B9CC900591D990D11222
:104910000D2D08B9C29E0591D990D1120D2D08B95F
:10492000040E151E0591D990D1120D2D08B9080E4F
:10493000191E0591D990D1120D2D08B9A395AF710B
:104940000591D990D1120D2D08B9A32BF001059135
:10495000D990D1120D2D08B9CC900591D990D112D2
:104960000D2D08B9C29E0591D990D1120D2D08B90F
:10497000040E151E0591D990D1120D2D08B9080EFF
:10498000191E0591D990D1120D2D08B9A395AF71BB
:104990000591D990D1120D2D08B9A32BF0010591E5
:1049A000D990D1120D2D08B9CC900591D990D11282
:1049B0000D2D08B9C29E0591D990D1120D2D08B9BF
:1049C000040E151E0591D990D1120D2D08B9080EAF
:1049D000191E0591D990D1120D2D08B9A395AF716B
:1049E0000591D990D1120D2D08B9A32BF00108958E
:1049F0008093A8089093A90808958093A708089524
:104A0000EF92FF920F931F93CF93DF93E0E2F8E0D2
:104A100020E0822F60814181EF93FF932F930E94CA
:104A200080312F91FF91EF913F962395293088F3A4
:104A3000552729E0662775E08AEA98E0E0E2F8E089
:104A400030854281EC01579FC00DD11D540F442386
:104A500049F0317039F06993699369936993699367
:104A60004A95C9F73F962A9559F731E02091A70852
:104A7000213011F43091BF0C00EC17E0780123E0F5
:104A8000A5E0B0E241E0F701329FE00DF11D0081A9
:104A900011811030E9F1183DD8F50030C9F10A381C
:104AA000B8F560E0712F760F783068F1783D58F5F1
:104AB0007850EC017A9FC00DD11D0880002021F4B0
:104AC0006B9F030E08821FC00980002021F46B9F9A
:104AD000030E098218C00A80002021F46B9F030E88
:104AE0000A8211C00B80002021F46B9F030E0B8201
:104AF0000AC00C80002039F46B9F030E0C82032E39
:104B00000A940092BF0C259673956395683050F215
:104B10003395303208F031E04395403208F4B3CF9A
:104B20007091BF0C703208F071E07093BF0C552784
:104B300029E0662775E0E0E2F8E030854281EC018B
:104B4000579FC00DD11D540F442349F0317039F4E3
:104B5000699369936993699369934A95C9F73F96F5
:104B60002A9559F71124DF91CF911F910F91FF9052
:104B7000EF9008950F921F92EF93FF93EFB7EF938B
:104B8000E0918400E251F1E0EF1700F0F395FA3084
:104B9000D8F30C94CB25E091C50CEA95E093C50CB5
:104BA000F091C40CF0FD57C0EC3098F0F3E0F093B6
:104BB0008900FDE8F0938800E0FB289826F4E1E006
:104BC0000E949B27B8C0E5E1EA95F1F70000289A1A
:104BD000B2C0E63038F100C000C02898E0FBE4E045
:104BE00016F40E949B27E4E0E0933600E6E0E093B1
:104BF0006F00A1C0EF93EFB7EF93E0918400ED5504
:104C0000E13000F0E23000F0E33000F0E43000F09A
:104C1000E53000F0289AE2E0E0936F00EF91EFBFFB
:104C2000EF91189500C0E0FB289826F4E1E00E947F
:104C30009B2705C0E5E1EA95F1F70000289AE0918D
:104C4000C50CE03009F077C0EDEFE093C50CE1E072
:104C5000E093C40C70C0E7E0E0938900EBE1E093DF
:104C6000880000C02898E2E000C00E949B27FDEF6A
:104C70000090CB0CF019E091C50CEF17E0F4FDEFBC
:104C80000090CB0CF0190090CC0CF019EF1798F0B5
:104C9000EDE1FF2700800F92EA95E1F70FE10A9519
:104CA000F1F7000000000E941120E1E0FF270F90C3
:104CB0000192EE31E0F3E091C50CE03009F03BC029
:104CC0002F933F934F935F936F937F938F939F9314
:104CD000AF93BF9378941124EE27E093C40CE2E1E4
:104CE000E093C50CF091CD0CF093CB0CF091CE0C71
:104CF000F093CC0CE091C70CF091C80CE115F105D4
:104D000009F009950E94632C0E948F320E94AD2603
:104D10001124E091C90CF091CA0CE115F10509F0DC
:104D20000995BF91AF919F918F917F916F915F9105
:104D30004F913F912F91EF91EFBFFF91EF911F9016
:104D40000F9018952898E2E000C00E949B27E09100
:104D5000C50CEA95E093C50C0895E091F10EE0FDD5
:104D60000E94302E0090EF0E002019F4A1EEBCE05E
:104D700002C0A7EEBDE021E002260092EF0E22E085
:104D80002093F00EE091F10EE0FF08952F923F92F4
:104D90004F925F926F927F928F929F92AF92BF924B
:104DA000CF92DF92EF92FF920F931F93CF93DF93F7
:104DB0005091040F6091080F7091090F8091070FB7
:104DC0004090050F5090060F662480900C0F909035
:104DD0000D0FA0900A0FB0900B0F1D01C3E8840DBA
:104DE000651D761D6815790508F0B501FB01449134
:104DF00045031D92840D651D761D6815790508F023
:104E0000B501FB01449145031D92CA9541F7D101BB
:104E10002090F30E3090F40E4090F60E5090F70E66
:104E20006090F50E1091F20E7090F90E8090FA0ECF
:104E30009090FB0EA090FC0EB090FD0E2091F80E0D
:104E4000C090FF0ED090000FE090020FF090030F83
:104E50000091010F3091FE0E9FEFCC91DD27C7FD31
:104E6000DFEF620C431CF201449141030008C10DC5
:104E7000D01D970CA81CF501449142030008C10DF8
:104E8000D01D0C0DED1CF701449143030008C10D2A
:104E9000D01D0024C038D0050CF0CFE70A94C038EC
:104EA000D0050CF4C0E8C058CD939A9509F0D5CF41
:104EB0004091F00E4A954093F00E97E009F0CDCF67
:104EC0006092F50E4092F60E9092FB0EA092FC0EB0
:104ED0000093010FE092020F5093040F6093080FAC
:104EE0007093090F8093070FDF91CF911F910F915E
:104EF000FF90EF90DF90CF90BF90AF909F908F90FA
:104F00007F906F905F904F903F902F900895E09129
:104F1000ED0EF091EE0E019100000093B3000EE053
:104F2000ED3EF00701EE1CE008F0F801E093ED0E15
:104F3000F093EE0E08950F931F932F93EF93E0914C
:104F4000ED0EF091EE0E01910093B3000EE0ED3EF8
:104F5000F00701EE1CE008F0F801E093ED0EF0938D
:104F6000EE0EE8E0EA95F1F7EF912F911F910F9186
:104F7000E0FD289AE0FF01C00895F4E1FA95F1F709
:104F800000C0E1FD289AE1FF00C008959927772726
:104F9000E8E0F1E6660F771FE60FF71FA591B491E1
:104FA000E2EFFEE026E0289FE00DF11DA183B28331
:104FB0001124089599277727E2EFFEE026E0289F45
:104FC000E00DF11D73E6760F75831124089599277E
:104FD0007727E2EFFEE026E0289FE00DF11D6083D9
:104FE00011240895A0E2B0E0E8EFF7E20C94D33486
:104FF00069837A838B839C832D833E834F83588779
:10500000CE010196BE01675F7F4F0E946E2BCE01DD
:105010000596BE016F5E7F4F0E946E2B9985923080
:1050200088F089898230C8F0943019F4823051F4C4
:1050300004C0843029F4923081F48FEC91E0C6C032
:10504000923049F420E09A858A89981321E02A87D2
:10505000CE010996BBC0823049F420E09A858A8946
:10506000981321E02A8BCE014196B0C02D843E8456
:105070004F8458886D887E888F88988CEE24FF2412
:105080008701AA24BB24650140E050E060E070E0A5
:10509000E0E0F0E0C10181709070892BE9F0E60C4E
:1050A000F71C081D191D9A01AB012A0D3B1D4C1D53
:1050B0005D1D80E090E0A0E0B0E0E614F704080594
:1050C000190520F481E090E0A0E0B0E0BA01A90168
:1050D000480F591F6A1F7B1FAA0CBB1CCC1CDD1C70
:1050E00097FE08C081E090E0A0E0B0E0A82AB92ACD
:1050F000CA2ADB2A3196E032F10549F0660C771CAA
:10510000881C991C5694479437942794C3CFFA85EA
:10511000EA892B893C898B859C85280F391F2E5F56
:105120003F4F17C0CA0181709070892B61F01695AE
:105130000795F794E79480E090E0A0E0B0E8E82AD3
:10514000F92A0A2B1B2B76956795579547952F5F64
:105150003F4F77FDE7CF0CC0440F551F661F771FE9
:1051600017FD4160EE0CFF1C001F111F2150304045
:10517000403090E0590790E0690790E4790760F3C8
:105180002B8F3C8FDB01CA018F779070A070B070BD
:1051900080349105A105B10561F447FD0AC0E11411
:1051A000F1040105110529F0405C5F4F6F4F7F4FFF
:1051B00040781A8EFE1711F081E08A8F4D8F5E8F36
:1051C0006F8F78A383E0898FCE0149960E94992A38
:1051D000A096E2E10C94EF34A8E1B0E0E2EFF8E24F
:1051E0000C94DB3469837A838B839C832D833E8389
:1051F0004F835887B9E0EB2EF12CEC0EFD1ECE014B
:105200000196B7010E946E2B8E010F5E1F4FCE01DB
:105210000596B8010E946E2B2985223008F47EC0C5
:105220003989323010F4B8017CC08A859A8989277F
:105230008A87243011F0223031F4231709F06EC030
:105240006FEC71E06EC0343039F41D861E861F8607
:10525000188A1C861B8604C0323021F484E08987BA
:10526000B7015FC02B853C858B899C89281B390B36
:105270003C872B87ED84FE840F851889AD88BE8816
:10528000CF88D88CEA14FB040C051D0540F4EE0C05
:10529000FF1C001F111F215030403C872B8720E04E
:1052A00030E040E050E080E090E0A0E0B0E460E07A
:1052B00070E0EA14FB040C051D0540F0282B392B87
:1052C0004A2B5B2BEA18FB080C091D09B695A7951C
:1052D00097958795EE0CFF1C001F111F6F5F7F4F86
:1052E0006F31710531F7DA01C9018F779070A070C5
:1052F000B07080349105A105B10561F427FD0AC0A5
:10530000E114F1040105110529F0205C3F4F4F4FD6
:105310005F4F20782D873E874F87588BBE01675F90
:105320007F4FCB010E94992A6896EAE00C94F734EB
:10533000A8E0B0E0EEE9F9E20C94DC349B01AC01AA
:1053400083E08983DA01C9018827B7FD839599270E
:10535000AA27BB27B82E211531054105510519F49F
:1053600082E089833AC08823A9F0203080E03807A2
:1053700080E0480780E8580729F460E070E080E0AA
:105380009FEC30C0EE24FF248701E21AF30A040BDD
:10539000150B02C079018A018EE1C82ED12CDC8266
:1053A000CB82ED82FE820F831887C801B7010E946D
:1053B0004A2A01971816190684F4082E04C0EE0C28
:1053C000FF1C001F111F0A94D2F7ED82FE820F838B
:1053D0001887C81AD90ADC82CB82BA82CE0101961C
:1053E0000E94992A2896E9E00C94F834ACE0B0E0E9
:1053F000ECEFF9E20C94E33469837A838B839C832A
:10540000CE010196BE016B5F7F4F0E946E2B8D8196
:10541000823061F1823050F1843021F48E81882312
:1054200051F12EC02F81388537FD20C06E812F317C
:1054300031051CF06623F9F023C08EE190E0821B59
:10544000930B29853A854B855C8504C05695479515
:10545000379527958A95D2F76623B1F050954095F8
:10546000309521953F4F4F4F5F4F0EC020E030E009
:1054700040E050E009C02FEF3FEF4FEF5FE704C07F
:1054800020E030E040E050E8B901CA012C96E2E0AB
:105490000C94FF34EF92FF920F931F937B018C01CA
:1054A00080E0E81680E0F80681E0080780E0180751
:1054B00088F48FEFE816F1040105110531F028F0AA
:1054C00088E090E0A0E0B0E017C080E090E0A0E0CD
:1054D000B0E012C080E0E81680E0F80680E008073F
:1054E00081E0180728F088E190E0A0E0B0E004C077
:1054F00080E190E0A0E0B0E020E230E040E050E069
:10550000281B390B4A0B5B0B04C016950795F794C3
:10551000E7948A95D2F7F701E952FE4F8081281B64
:10552000310941095109C9011F910F91FF90EF9075
:105530000895DF92EF92FF920F931F93FC01E48096
:10554000F58006811781D1808081823048F480E027
:1055500090E0A0E1B0E0E82AF92A0A2B1B2BA5C0B5
:10556000843009F49FC0823021F4EE24FF248701A7
:1055700005C0E114F1040105110519F4E0E0F0E0C3
:1055800096C0628173819FEF623879070CF05BC02F
:1055900022E83FEF261B370B2A3131052CF020E0A3
:1055A00030E040E050E02AC0B801A701022E04C05C
:1055B00076956795579547950A94D2F781E090E0E4
:1055C000A0E0B0E004C0880F991FAA1FBB1F2A9556
:1055D000D2F70197A109B1098E219F21A023B12300
:1055E0000097A105B10521F081E090E0A0E0B0E0D6
:1055F0009A01AB01282B392B4A2B5B2BDA01C9010D
:105600008F779070A070B07080349105A105B105BE
:1056100039F427FF09C0205C3F4F4F4F5F4F04C054
:10562000215C3F4F4F4F5F4FE0E0F0E02030A0E0C3
:105630003A07A0E04A07A0E45A0710F0E1E0F0E0E2
:1056400079018A0127C06038710564F5FB01E158D2
:10565000FF4FD801C7018F779070A070B070803471
:105660009105A105B10539F4E7FE0DC080E490E095
:10567000A0E0B0E004C08FE390E0A0E0B0E0E80E6E
:10568000F91E0A1F1B1F17FF05C016950795F794F3
:10569000E794319687E016950795F794E7948A95F5
:1056A000D1F705C0EE24FF248701EFEFF0E06E2F65
:1056B000679566276795902F9F77D794DD24D794B9
:1056C0008E2F8695492F462B582F5D29B701CA0189
:1056D0001F910F91FF90EF90DF900895FC01DB0187
:1056E000408151812281622F6F7770E0221F222733
:1056F000221F9381892F880F822B282F30E0991F3A
:105700009927991F11969C93119721153105A9F599
:10571000411551056105710511F482E037C082E839
:105720009FEF13969C938E9312979A01AB0167E0BB
:10573000220F331F441F551F6A95D1F783E08C93C6
:105740000DC0220F331F441F551F12968D919C913F
:105750001397019713969C938E931297203080E0B5
:10576000380780E0480780E4580758F314962D93D3
:105770003D934D935C93179708952F3F310579F42E
:10578000411551056105710519F484E08C93089564
:1057900064FF03C081E08C9312C01C9210C02F578D
:1057A000304013963C932E93129783E08C9387E0BE
:1057B000440F551F661F771F8A95D1F770641496A2
:1057C0004D935D936D937C9317970895E0EEF4E00D
:1057D000A0EEB2E01D923197E9F7112408959927C0
:1057E000772720E2629F080E191EA0EEB2E0A00DFE
:1057F000B11D4C93112408958093C20C089580919B
:10580000C60C817008952091C60C2E7F2093C60C83
:105810000895882329F48091CF0C9091D00C08959D
:105820008091D30C9091D40C0895F999FECF92BD3C
:1058300081BD60BDF894FA9AF99A78940895F9991F
:10584000FECF92BD81BDF894F89A80B57894089502
:10585000129AC895C895129820E030E080E090E058
:1058600040E036952795969587951398C895C895E5
:10587000009B3068019B9068139AC895C8954F5F4C
:10588000403179F73093D00C2093CF0C9093D40C07
:105890008093D30C8091CF0C9091D00C0F9731F066
:1058A0008091D30C9091D40C0F9761F428E088E19B
:1058B00090E00FB6F894A895809360000FBE2093F7
:1058C0006000FFCF089510920E0F009903C081E091
:1058D00080930E0F019905C080910E0F8260809316
:1058E0000E0F0E94282C08951F9380E090E00E94E4
:1058F0001F2C182F81E090E00E941F2C90E0382F81
:1059000020E0210F311D2A55354509F491E0892FFA
:105910001F910895CF93DF93C0E0D0E0FE01E059DE
:10592000FF4FE491CE016E2F0E94152C2196C032BC
:10593000D105A1F7C0E2D0E0CE016FEF0E94152C97
:10594000CE0101966FEF0E94152CA09688E0C03022
:10595000D80791F7DF91CF91089583E090E00E94FE
:10596000E33180910E0F382F80FD02C020E009C086
:105970008091CF0C9091D00C292F221F2227221F1B
:105980002F5F31FF09C08091D30C9091D40C97FF09
:1059900002C0286001C02460822F0895FC01458761
:1059A00008950895FC0180818F7580830895FC011E
:1059B0008081806480830895FC0144870895FC0100
:1059C00047830895FC01408708951F93CF93DF9389
:1059D000EC01162F898190E0FC01EE0FFF1FE85FBC
:1059E000FE4925913491E42FFF27E7FDF095E80F5C
:1059F000F91FEE0FFF1FE85FFE49859194916091BA
:105A0000160F821B930B70E00E94C0349B0161153E
:105A1000710511F421E030E0812F90E0FC01EE0FE0
:105A2000FF1FE80FF91FEE0FFF1FEE50F14F8181AE
:105A30009281820F931F928381833B832A83888183
:105A4000886088838981840F8C83DF91CF911F9137
:105A500008954093160F089590936C0F80936B0FE9
:105A60008FE68093700F1092E00CE1E1FFE090E18F
:105A70008FEF28E19083138681878287168620879F
:105A8000958376963FE0E936F307A1F708958AEF0C
:105A900080931E0F8093340F80934A0F8093600F82
:105AA0001092E00C0895DC01ED91FC911197AF018B
:105AB0004F5F5F4F11965C934E93E4912E2F30E031
:105AC000E7FF13C02F7730703695322F2227379596
:105AD0002795FA014F5F5F4FE4918E2F8F77280F44
